{
  "contractName": "BubbleFactory",
  "abi": [
    {
      "inputs": [
        {
          "internalType": "address",
          "name": "_feeToSetter",
          "type": "address"
        },
        {
          "internalType": "address",
          "name": "_feeTo",
          "type": "address"
        }
      ],
      "stateMutability": "nonpayable",
      "type": "constructor"
    },
    {
      "anonymous": false,
      "inputs": [
        {
          "indexed": true,
          "internalType": "address",
          "name": "token0",
          "type": "address"
        },
        {
          "indexed": true,
          "internalType": "address",
          "name": "token1",
          "type": "address"
        },
        {
          "indexed": false,
          "internalType": "address",
          "name": "pair",
          "type": "address"
        },
        {
          "indexed": false,
          "internalType": "uint256",
          "name": "",
          "type": "uint256"
        }
      ],
      "name": "PairCreated",
      "type": "event"
    },
    {
      "inputs": [
        {
          "internalType": "uint256",
          "name": "",
          "type": "uint256"
        }
      ],
      "name": "allPairs",
      "outputs": [
        {
          "internalType": "address",
          "name": "",
          "type": "address"
        }
      ],
      "stateMutability": "view",
      "type": "function"
    },
    {
      "inputs": [],
      "name": "feeTo",
      "outputs": [
        {
          "internalType": "address",
          "name": "",
          "type": "address"
        }
      ],
      "stateMutability": "view",
      "type": "function"
    },
    {
      "inputs": [],
      "name": "feeToSetter",
      "outputs": [
        {
          "internalType": "address",
          "name": "",
          "type": "address"
        }
      ],
      "stateMutability": "view",
      "type": "function"
    },
    {
      "inputs": [
        {
          "internalType": "address",
          "name": "",
          "type": "address"
        },
        {
          "internalType": "address",
          "name": "",
          "type": "address"
        }
      ],
      "name": "getPair",
      "outputs": [
        {
          "internalType": "address",
          "name": "",
          "type": "address"
        }
      ],
      "stateMutability": "view",
      "type": "function"
    },
    {
      "inputs": [],
      "name": "allPairsLength",
      "outputs": [
        {
          "internalType": "uint256",
          "name": "",
          "type": "uint256"
        }
      ],
      "stateMutability": "view",
      "type": "function"
    },
    {
      "inputs": [
        {
          "internalType": "address",
          "name": "tokenA",
          "type": "address"
        },
        {
          "internalType": "address",
          "name": "tokenB",
          "type": "address"
        }
      ],
      "name": "createPair",
      "outputs": [
        {
          "internalType": "address",
          "name": "pair",
          "type": "address"
        }
      ],
      "stateMutability": "nonpayable",
      "type": "function"
    },
    {
      "inputs": [],
      "name": "getInitHash",
      "outputs": [
        {
          "internalType": "bytes32",
          "name": "",
          "type": "bytes32"
        }
      ],
      "stateMutability": "pure",
      "type": "function"
    },
    {
      "inputs": [
        {
          "internalType": "address",
          "name": "_feeTo",
          "type": "address"
        }
      ],
      "name": "setFeeTo",
      "outputs": [],
      "stateMutability": "nonpayable",
      "type": "function"
    },
    {
      "inputs": [
        {
          "internalType": "address",
          "name": "_feeToSetter",
          "type": "address"
        }
      ],
      "name": "setFeeToSetter",
      "outputs": [],
      "stateMutability": "nonpayable",
      "type": "function"
    }
  ],
  "bytecode": "0x608060405234801561001057600080fd5b50604051612a93380380612a9383398101604081905261002f9161007c565b600180546001600160a01b039384166001600160a01b031991821617909155600080549290931691161790556100af565b80516001600160a01b038116811461007757600080fd5b919050565b6000806040838503121561008f57600080fd5b61009883610060565b91506100a660208401610060565b90509250929050565b6129d5806100be6000396000f3fe608060405234801561001057600080fd5b50600436106100935760003560e01c8063574f2ba311610066578063574f2ba314610104578063a2e74af61461010c578063c9c6539614610121578063e6a4390514610134578063f46901ed1461016857600080fd5b8063017e7e5814610098578063094b7415146100c85780631e3dd18b146100db5780633c9de1b8146100ee575b600080fd5b6000546100ab906001600160a01b031681565b6040516001600160a01b0390911681526020015b60405180910390f35b6001546100ab906001600160a01b031681565b6100ab6100e93660046105df565b61017b565b6100f66101a5565b6040519081526020016100bf565b6003546100f6565b61011f61011a366004610614565b6101fb565b005b6100ab61012f366004610636565b610270565b6100ab610142366004610636565b60026020908152600092835260408084209091529082529020546001600160a01b031681565b61011f610176366004610614565b610562565b6003818154811061018b57600080fd5b6000918252602090912001546001600160a01b0316905081565b600080604051806020016101b8906105d2565b6020820181038252601f19601f820116604052509050806040516020016101df9190610669565b6040516020818303038152906040528051906020012091505090565b6001546001600160a01b0316331461024e5760405162461bcd60e51b8152602060048201526011602482015270213ab13136329d102327a92124a22222a760791b60448201526064015b60405180910390fd5b600180546001600160a01b0319166001600160a01b0392909216919091179055565b6000816001600160a01b0316836001600160a01b0316036102d35760405162461bcd60e51b815260206004820152601b60248201527f427562626c653a204944454e544943414c5f41444452455353455300000000006044820152606401610245565b600080836001600160a01b0316856001600160a01b0316106102f65783856102f9565b84845b90925090506001600160a01b03821661034b5760405162461bcd60e51b8152602060048201526014602482015273427562626c653a205a45524f5f4144445245535360601b6044820152606401610245565b6001600160a01b038281166000908152600260209081526040808320858516845290915290205416156103b65760405162461bcd60e51b8152602060048201526013602482015272427562626c653a20504149525f45584953545360681b6044820152606401610245565b6000604051806020016103c8906105d2565b601f1982820381018352601f9091011660408190526bffffffffffffffffffffffff19606086811b8216602084015285901b166034820152909150600090604801604051602081830303815290604052805190602001209050808251602084016000f560405163485cc95560e01b81526001600160a01b03868116600483015285811660248301529196509086169063485cc95590604401600060405180830381600087803b15801561047a57600080fd5b505af115801561048e573d6000803e3d6000fd5b505050506001600160a01b0384811660008181526002602081815260408084208987168086529083528185208054978d166001600160a01b031998891681179091559383528185208686528352818520805488168517905560038054600181018255958190527fc2575a0e9e593c00f959f8c92f12db2869c3395a3b0502d05e2516446f71f85b9095018054909716841790965592548351928352908201527f0d3648bd0f6ba80134a33ba9275ac585d9d315f0ad8355cddefde31afa28d0e9910160405180910390a35050505092915050565b6001546001600160a01b031633146105b05760405162461bcd60e51b8152602060048201526011602482015270213ab13136329d102327a92124a22222a760791b6044820152606401610245565b600080546001600160a01b0319166001600160a01b0392909216919091179055565b6123078061069983390190565b6000602082840312156105f157600080fd5b5035919050565b80356001600160a01b038116811461060f57600080fd5b919050565b60006020828403121561062657600080fd5b61062f826105f8565b9392505050565b6000806040838503121561064957600080fd5b610652836105f8565b9150610660602084016105f8565b90509250929050565b6000825160005b8181101561068a5760208186018101518583015201610670565b50600092019182525091905056fe60806040526001600c5534801561001557600080fd5b50604080518082018252600a815269427562626c65204c507360b01b6020918201528151808301835260018152603160f81b9082015281517f8b73c3c69bb8fe3d512ecc4cf759cc79239f7b179b0ffacaa9a75d522b39400f818301527f656f47eb9a5772881b7f7f94c5775f323a2fe51cee03704d12fa7c5f54d296f0818401527fc89efdaa54c0f20c7adf612882df0950f5a951637e0307cdcb4c672f298b8bc660608201524660808201523060a0808301919091528351808303909101815260c09091019092528151910120600355600580546001600160a01b031916331790556121ff806101086000396000f3fe608060405234801561001057600080fd5b50600436106101a95760003560e01c80636a627842116100f9578063ba9a7a5611610097578063d21220a711610071578063d21220a714610409578063d505accf1461041c578063dd62ed3e1461042f578063fff6cae91461045a57600080fd5b8063ba9a7a56146103da578063bc25cf77146103e3578063c45a0155146103f657600080fd5b80637ecebe00116100d35780637ecebe001461035957806389afcb441461037957806395d89b41146103a1578063a9059cbb146103c757600080fd5b80636a6278421461031d57806370a08231146103305780637464fc3d1461035057600080fd5b806323b872dd116101665780633644e515116101405780633644e515146102ef578063485cc955146102f85780635909c0d51461030b5780635a3d54931461031457600080fd5b806323b872dd1461029b57806330adf81f146102ae578063313ce567146102d557600080fd5b8063022c0d9f146101ae57806306fdde03146101c35780630902f1ac14610202578063095ea7b3146102365780630dfe16811461025957806318160ddd14610284575b600080fd5b6101c16101bc366004611d94565b610462565b005b6101ec6040518060400160405280600a815260200169427562626c65204c507360b01b81525081565b6040516101f99190611e4e565b60405180910390f35b61020a610953565b604080516001600160701b03948516815293909216602084015263ffffffff16908201526060016101f9565b610249610244366004611e81565b61097d565b60405190151581526020016101f9565b60065461026c906001600160a01b031681565b6040516001600160a01b0390911681526020016101f9565b61028d60005481565b6040519081526020016101f9565b6102496102a9366004611ead565b610994565b61028d7f6e71edae12b1b97f4d1f60370fef10105fa2faae0126114a169c64845d6126c981565b6102dd601281565b60405160ff90911681526020016101f9565b61028d60035481565b6101c1610306366004611eee565b610a28565b61028d60095481565b61028d600a5481565b61028d61032b366004611f27565b610aa4565b61028d61033e366004611f27565b60016020526000908152604090205481565b61028d600b5481565b61028d610367366004611f27565b60046020526000908152604090205481565b61038c610387366004611f27565b610d69565b604080519283526020830191909152016101f9565b6101ec604051806040016040528060078152602001660244255422d4c560cc1b81525081565b6102496103d5366004611e81565b6110cc565b61028d6103e881565b6101c16103f1366004611f27565b6110d9565b60055461026c906001600160a01b031681565b60075461026c906001600160a01b031681565b6101c161042a366004611f44565b6111ed565b61028d61043d366004611eee565b600260209081526000928352604080842090915290825290205481565b6101c16113fe565b600c5460011461048d5760405162461bcd60e51b815260040161048490611fbb565b60405180910390fd5b6000600c55841515806104a05750600084115b6104f75760405162461bcd60e51b815260206004820152602260248201527f427562626c653a20494e53554646494349454e545f4f55545055545f414d4f55604482015261139560f21b6064820152608401610484565b600080610502610953565b5091509150816001600160701b0316871080156105275750806001600160701b031686105b6105735760405162461bcd60e51b815260206004820152601e60248201527f427562626c653a20494e53554646494349454e545f4c495155494449545900006044820152606401610484565b60065460075460009182916001600160a01b039182169190811690891682148015906105b15750806001600160a01b0316896001600160a01b031614155b6105f25760405162461bcd60e51b8152602060048201526012602482015271427562626c653a20494e56414c49445f544f60701b6044820152606401610484565b8a1561060357610603828a8d611522565b891561061457610614818a8c611522565b861561068157604051634384d82d60e01b81526001600160a01b038a1690634384d82d9061064e9033908f908f908e908e90600401611fe3565b600060405180830381600087803b15801561066857600080fd5b505af115801561067c573d6000803e3d6000fd5b505050505b6040516370a0823160e01b81523060048201526001600160a01b038316906370a0823190602401602060405180830381865afa1580156106c5573d6000803e3d6000fd5b505050506040513d601f19601f820116820180604052508101906106e9919061202f565b6040516370a0823160e01b81523060048201529094506001600160a01b038216906370a0823190602401602060405180830381865afa158015610730573d6000803e3d6000fd5b505050506040513d601f19601f82011682018060405250810190610754919061202f565b92505050600089856001600160701b031661076f919061205e565b831161077c576000610799565b61078f8a6001600160701b03871661205e565b610799908461205e565b905060006107b08a6001600160701b03871661205e565b83116107bd5760006107da565b6107d08a6001600160701b03871661205e565b6107da908461205e565b905060008211806107eb5750600081115b6108415760405162461bcd60e51b815260206004820152602160248201527f427562626c653a20494e53554646494349454e545f494e5055545f414d4f554e6044820152601560fa1b6064820152608401610484565b600061086361085184600a61166d565b61085d876103e861166d565b906116d4565b9050600061087561085184600a61166d565b905061089a620f42406108946001600160701b038b8116908b1661166d565b9061166d565b6108a4838361166d565b10156108de5760405162461bcd60e51b8152602060048201526009602482015268427562626c653a204b60b81b6044820152606401610484565b50506108ec8484888861172a565b60408051838152602081018390529081018c9052606081018b90526001600160a01b038a169033907fd78ad95fa46c994b6551d0da85fc275fe613ce37657fb8d5e3d130840159d8229060800160405180910390a350506001600c55505050505050505050565b6008546001600160701b0380821692600160701b830490911691600160e01b900463ffffffff1690565b600061098a338484611913565b5060015b92915050565b6001600160a01b038316600090815260026020908152604080832033845290915281205460001914610a13576001600160a01b03841660009081526002602090815260408083203384529091529020546109ee90836116d4565b6001600160a01b03851660009081526002602090815260408083203384529091529020555b610a1e848484611975565b5060019392505050565b6005546001600160a01b03163314610a765760405162461bcd60e51b8152602060048201526011602482015270213ab13136329d102327a92124a22222a760791b6044820152606401610484565b600680546001600160a01b039384166001600160a01b03199182161790915560078054929093169116179055565b6000600c54600114610ac85760405162461bcd60e51b815260040161048490611fbb565b6000600c81905580610ad8610953565b506006546040516370a0823160e01b81523060048201529294509092506000916001600160a01b03909116906370a0823190602401602060405180830381865afa158015610b2a573d6000803e3d6000fd5b505050506040513d601f19601f82011682018060405250810190610b4e919061202f565b6007546040516370a0823160e01b81523060048201529192506000916001600160a01b03909116906370a0823190602401602060405180830381865afa158015610b9c573d6000803e3d6000fd5b505050506040513d601f19601f82011682018060405250810190610bc0919061202f565b90506000610bd7836001600160701b0387166116d4565b90506000610bee836001600160701b0387166116d4565b90506000610bfc8787611a1b565b60008054919250819003610c3657610c226103e861085d610c1d878761166d565b611b58565b9850610c3160006103e8611bc8565b610c7d565b610c7a6001600160701b038916610c4d868461166d565b610c579190612087565b6001600160701b038916610c6b868561166d565b610c759190612087565b611c57565b98505b60008911610cdb5760405162461bcd60e51b815260206004820152602560248201527f427562626c653a20494e53554646494349454e545f4c49515549444954595f4d604482015264125395115160da1b6064820152608401610484565b610ce58a8a611bc8565b610cf186868a8a61172a565b8115610d1b57600854610d17906001600160701b0380821691600160701b90041661166d565b600b555b604080518581526020810185905233917f4c209b5fc8ad50758f13e2e1088ba56a560dff690a1c6fef26394f4c03821c4f910160405180910390a250506001600c5550949695505050505050565b600080600c54600114610d8e5760405162461bcd60e51b815260040161048490611fbb565b6000600c81905580610d9e610953565b506006546007546040516370a0823160e01b81523060048201529395509193506001600160a01b039081169291169060009083906370a0823190602401602060405180830381865afa158015610df8573d6000803e3d6000fd5b505050506040513d601f19601f82011682018060405250810190610e1c919061202f565b6040516370a0823160e01b81523060048201529091506000906001600160a01b038416906370a0823190602401602060405180830381865afa158015610e66573d6000803e3d6000fd5b505050506040513d601f19601f82011682018060405250810190610e8a919061202f565b30600090815260016020526040812054919250610ea78888611a1b565b60005490915080610eb8848761166d565b610ec29190612087565b9a5080610ecf848661166d565b610ed99190612087565b995060008b118015610eeb575060008a115b610f455760405162461bcd60e51b815260206004820152602560248201527f427562626c653a20494e53554646494349454e545f4c49515549444954595f42604482015264155493915160da1b6064820152608401610484565b610f4f3084611c6f565b610f5a878d8d611522565b610f65868d8c611522565b6040516370a0823160e01b81523060048201526001600160a01b038816906370a0823190602401602060405180830381865afa158015610fa9573d6000803e3d6000fd5b505050506040513d601f19601f82011682018060405250810190610fcd919061202f565b6040516370a0823160e01b81523060048201529095506001600160a01b038716906370a0823190602401602060405180830381865afa158015611014573d6000803e3d6000fd5b505050506040513d601f19601f82011682018060405250810190611038919061202f565b935061104685858b8b61172a565b81156110705760085461106c906001600160701b0380821691600160701b90041661166d565b600b555b604080518c8152602081018c90526001600160a01b038e169133917fdccd412f0b1252819cb1fd330b93224ca42612892bb3f4f789976e6d81936496910160405180910390a35050505050505050506001600c81905550915091565b600061098a338484611975565b600c546001146110fb5760405162461bcd60e51b815260040161048490611fbb565b6000600c556006546007546008546040516370a0823160e01b81523060048201526001600160a01b0393841693909216916111969184918691611191916001600160701b039091169084906370a08231906024015b602060405180830381865afa15801561116d573d6000803e3d6000fd5b505050506040513d601f19601f8201168201806040525081019061085d919061202f565b611522565b6008546040516370a0823160e01b81523060048201526111e3918391869161119191600160701b9091046001600160701b0316906001600160a01b038516906370a0823190602401611150565b50506001600c5550565b4284101561122f5760405162461bcd60e51b815260206004820152600f60248201526e109d58989b194e8811561412549151608a1b6044820152606401610484565b6003546001600160a01b038816600090815260046020526040812080549192917f6e71edae12b1b97f4d1f60370fef10105fa2faae0126114a169c64845d6126c9918b918b918b9190876112828361209b565b909155506040805160208101969096526001600160a01b0394851690860152929091166060840152608083015260a082015260c0810187905260e001604051602081830303815290604052805190602001206040516020016112fb92919061190160f01b81526002810192909252602282015260420190565b60408051601f198184030181528282528051602091820120600080855291840180845281905260ff88169284019290925260608301869052608083018590529092509060019060a0016020604051602081039080840390855afa158015611366573d6000803e3d6000fd5b5050604051601f1901519150506001600160a01b0381161580159061139c5750886001600160a01b0316816001600160a01b0316145b6113e85760405162461bcd60e51b815260206004820152601960248201527f427562626c653a20494e56414c49445f5349474e4154555245000000000000006044820152606401610484565b6113f3898989611913565b505050505050505050565b600c546001146114205760405162461bcd60e51b815260040161048490611fbb565b6000600c556006546040516370a0823160e01b815230600482015261151b916001600160a01b0316906370a0823190602401602060405180830381865afa15801561146f573d6000803e3d6000fd5b505050506040513d601f19601f82011682018060405250810190611493919061202f565b6007546040516370a0823160e01b81523060048201526001600160a01b03909116906370a0823190602401602060405180830381865afa1580156114db573d6000803e3d6000fd5b505050506040513d601f19601f820116820180604052508101906114ff919061202f565b6008546001600160701b0380821691600160701b90041661172a565b6001600c55565b604080518082018252601981527f7472616e7366657228616464726573732c75696e74323536290000000000000060209182015281516001600160a01b0385811660248301526044808301869052845180840390910181526064909201845291810180516001600160e01b031663a9059cbb60e01b179052915160009283928716916115ae91906120b4565b6000604051808303816000865af19150503d80600081146115eb576040519150601f19603f3d011682016040523d82523d6000602084013e6115f0565b606091505b509150915081801561161a57508051158061161a57508080602001905181019061161a91906120d0565b6116665760405162461bcd60e51b815260206004820152601760248201527f427562626c653a205452414e534645525f4641494c45440000000000000000006044820152606401610484565b5050505050565b60008115806116915750828261168381836120f2565b925061168f9083612087565b145b61098e5760405162461bcd60e51b815260206004820152601460248201527364732d6d6174682d6d756c2d6f766572666c6f7760601b6044820152606401610484565b6000826116e1838261205e565b915081111561098e5760405162461bcd60e51b815260206004820152601560248201527464732d6d6174682d7375622d756e646572666c6f7760581b6044820152606401610484565b6001600160701b03841180159061174857506001600160701b038311155b6117875760405162461bcd60e51b815260206004820152601060248201526f427562626c653a204f564552464c4f5760801b6044820152606401610484565b600061179864010000000042612109565b6008549091506000906117b890600160e01b900463ffffffff168361211d565b905060008163ffffffff161180156117d857506001600160701b03841615155b80156117ec57506001600160701b03831615155b1561187b578063ffffffff166118148561180586611cf9565b6001600160e01b031690611d12565b6001600160e01b031661182791906120f2565b600960008282546118389190612141565b909155505063ffffffff81166118518461180587611cf9565b6001600160e01b031661186491906120f2565b600a60008282546118759190612141565b90915550505b6008805463ffffffff8416600160e01b026001600160e01b036001600160701b03898116600160701b9081026001600160e01b03199095168c83161794909417918216831794859055604080519382169282169290921783529290930490911660208201527f1c411e9a96e071241c2f21f7726b17ae89e3cab4c78be50e062b03a9fffbbad1910160405180910390a1505050505050565b6001600160a01b0383811660008181526002602090815260408083209487168084529482529182902085905590518481527f8c5be1e5ebec7d5bd14f71427d1e84f3dd0314c0f7b2291e5b200ac8c7c3b92591015b60405180910390a3505050565b6001600160a01b03831660009081526001602052604090205461199890826116d4565b6001600160a01b0380851660009081526001602052604080822093909355908416815220546119c79082611d27565b6001600160a01b0380841660008181526001602052604090819020939093559151908516907fddf252ad1be2c89b69c2b068fc378daa952ba7f163c4a11628f55a4df523b3ef906119689085815260200190565b600080600560009054906101000a90046001600160a01b03166001600160a01b031663017e7e586040518163ffffffff1660e01b8152600401602060405180830381865afa158015611a71573d6000803e3d6000fd5b505050506040513d601f19601f82011682018060405250810190611a959190612154565b600b546001600160a01b038216158015945091925090611b44578015611b3f576000611ad0610c1d6001600160701b0388811690881661166d565b90506000611add83611b58565b905080821115611b3c576000611aff611af684846116d4565b6000549061166d565b90506000611b1883611b1286600561166d565b90611d27565b90506000611b268284612087565b90508015611b3857611b388782611bc8565b5050505b50505b611b50565b8015611b50576000600b555b505092915050565b60006003821115611bb95750806000611b72600283612087565b611b7d906001612141565b90505b81811015611bb357905080600281611b988186612087565b611ba29190612141565b611bac9190612087565b9050611b80565b50919050565b8115611bc3575060015b919050565b600054611bd59082611d27565b60009081556001600160a01b038316815260016020526040902054611bfa9082611d27565b6001600160a01b0383166000818152600160205260408082209390935591519091907fddf252ad1be2c89b69c2b068fc378daa952ba7f163c4a11628f55a4df523b3ef90611c4b9085815260200190565b60405180910390a35050565b6000818310611c665781611c68565b825b9392505050565b6001600160a01b038216600090815260016020526040902054611c9290826116d4565b6001600160a01b03831660009081526001602052604081209190915554611cb990826116d4565b60009081556040518281526001600160a01b038416907fddf252ad1be2c89b69c2b068fc378daa952ba7f163c4a11628f55a4df523b3ef90602001611c4b565b600061098e600160701b6001600160701b038416612171565b6000611c686001600160701b038316846121a3565b600082611d348382612141565b915081101561098e5760405162461bcd60e51b815260206004820152601460248201527364732d6d6174682d6164642d6f766572666c6f7760601b6044820152606401610484565b6001600160a01b0381168114611d9157600080fd5b50565b600080600080600060808688031215611dac57600080fd5b85359450602086013593506040860135611dc581611d7c565b9250606086013567ffffffffffffffff80821115611de257600080fd5b818801915088601f830112611df657600080fd5b813581811115611e0557600080fd5b896020828501011115611e1757600080fd5b9699959850939650602001949392505050565b60005b83811015611e45578181015183820152602001611e2d565b50506000910152565b6020815260008251806020840152611e6d816040850160208701611e2a565b601f01601f19169190910160400192915050565b60008060408385031215611e9457600080fd5b8235611e9f81611d7c565b946020939093013593505050565b600080600060608486031215611ec257600080fd5b8335611ecd81611d7c565b92506020840135611edd81611d7c565b929592945050506040919091013590565b60008060408385031215611f0157600080fd5b8235611f0c81611d7c565b91506020830135611f1c81611d7c565b809150509250929050565b600060208284031215611f3957600080fd5b8135611c6881611d7c565b600080600080600080600060e0888a031215611f5f57600080fd5b8735611f6a81611d7c565b96506020880135611f7a81611d7c565b95506040880135945060608801359350608088013560ff81168114611f9e57600080fd5b9699959850939692959460a0840135945060c09093013592915050565b6020808252600e908201526d109d58989b194e881313d0d2d15160921b604082015260600190565b60018060a01b038616815284602082015283604082015260806060820152816080820152818360a0830137600081830160a090810191909152601f909201601f19160101949350505050565b60006020828403121561204157600080fd5b5051919050565b634e487b7160e01b600052601160045260246000fd5b8181038181111561098e5761098e612048565b634e487b7160e01b600052601260045260246000fd5b60008261209657612096612071565b500490565b6000600182016120ad576120ad612048565b5060010190565b600082516120c6818460208701611e2a565b9190910192915050565b6000602082840312156120e257600080fd5b81518015158114611c6857600080fd5b808202811582820484141761098e5761098e612048565b60008261211857612118612071565b500690565b63ffffffff82811682821603908082111561213a5761213a612048565b5092915050565b8082018082111561098e5761098e612048565b60006020828403121561216657600080fd5b8151611c6881611d7c565b6001600160e01b0382811682821681810283169291811582850482141761219a5761219a612048565b50505092915050565b60006001600160e01b03838116806121bd576121bd612071565b9216919091049291505056fea2646970667358221220d95a0c2cb3c473bccd244e21230a14a9da088b8f60d2adb2da11e3ac068f4bca64736f6c63430008110033a2646970667358221220fe26fba55110630ad4e0b75f4b244779deadcf71c1a922fd5b2d34a339515e0564736f6c63430008110033",
  "immutableReferences": {},
  "source": "pragma solidity ^0.8.10;\n// SPDX-License-Identifier: MIT\n\nimport \"./interfaces/IBubblePair.sol\";\nimport \"./BubblePair.sol\";\n\ncontract BubbleFactory {\n    address public feeTo;\n    address public feeToSetter;\n\n    mapping(address => mapping(address => address)) public getPair;\n    address[] public allPairs;\n\n    event PairCreated(\n        address indexed token0,\n        address indexed token1,\n        address pair,\n        uint256\n    );\n\n    constructor(\n        address _feeToSetter,\n        address _feeTo\n    ) {\n        feeToSetter = _feeToSetter;\n        feeTo = _feeTo;\n    }\n\n    function allPairsLength() external view returns (uint256) {\n        return allPairs.length;\n    }\n\n    function createPair(address tokenA, address tokenB)\n        external\n        returns (address pair)\n    {\n        require(tokenA != tokenB, \"Bubble: IDENTICAL_ADDRESSES\");\n        (address token0, address token1) = tokenA < tokenB\n            ? (tokenA, tokenB)\n            : (tokenB, tokenA);\n        require(token0 != address(0), \"Bubble: ZERO_ADDRESS\");\n        require(getPair[token0][token1] == address(0), \"Bubble: PAIR_EXISTS\"); // single check is sufficient\n        bytes memory bytecode = type(BubblePair).creationCode;\n        bytes32 salt = keccak256(abi.encodePacked(token0, token1));\n        assembly {\n            pair := create2(0, add(bytecode, 32), mload(bytecode), salt)\n        }\n        IBubblePair(pair).initialize(token0, token1);\n        getPair[token0][token1] = pair;\n        getPair[token1][token0] = pair; // populate mapping in the reverse direction\n        allPairs.push(pair);\n        emit PairCreated(token0, token1, pair, allPairs.length);\n    }\n\n    function getInitHash() public pure returns (bytes32) {\n        bytes memory bytecode = type(BubblePair).creationCode;\n        return keccak256(abi.encodePacked(bytecode));\n    }\n\n    function setFeeTo(address _feeTo) external {\n        require(msg.sender == feeToSetter, \"Bubble: FORBIDDEN\");\n        feeTo = _feeTo;\n    }\n\n    function setFeeToSetter(address _feeToSetter) external {\n        require(msg.sender == feeToSetter, \"Bubble: FORBIDDEN\");\n        feeToSetter = _feeToSetter;\n    }\n}\n",
  "sourcePath": "D:\\NewRouter\\contracts\\Factory\\BubbleFactory.sol",
  "compiler": {
    "name": "solc",
    "version": "0.8.17+commit.8df45f5f.Emscripten.clang"
  },
  "schemaVersion": "3.4.11",
  "updatedAt": "2023-01-27T13:02:49.553Z",
  "devdoc": {
    "kind": "dev",
    "methods": {},
    "version": 1
  },
  "userdoc": {
    "kind": "user",
    "methods": {},
    "version": 1
  }
}